:100000000C941F3A0C94BE3A0C94BE3A0C94BE3A2F
:100010000C94BE3A0C94BE3A0C94BE3A0C94BE3A80
:100020000C94BE3A0C94BE3A0C94BE3A0C94BE3A70
:100030000C94BE3A0C94773E0C94BE3A0C94BE3AA3
:100040000C94BE3A0C94BE3A0C94BE3A0C94BE3A50
:100050000C94BE3A0C94BE3A0C94BE3A0C94BE3A40
:100060000C94BE3A0C94BE3A0C94BE3A0C94BE3A30
:100070000A461846EB46C64AB04A1B462A46394647
:10008000964A47465546DADADADADADADADADADAE4
:10009000DADADADADADADADADADADADADADADADAC0
:1000A000DADADADADADADADADADADADADADADADAB0
:1000B000DADADADADADADADADADADADADADADADAA0
:1000C000DADADADADADA919191919191919191916A
:1000D0009191919191919191919191919191919110
:1000E0009191919191919191919191919191919100
:1000F00091919191919191919191919191919191F0
:10010000919191919191DADADADADADADADADADA05
:10011000DADADADADADADADADADADADADADADADA3F
:10012000DAFFDADADADADADADADADADADADADADA0A
:10013000DADADADADADADADADADADADADADADADA1F
:10014000DADADADADADADADADADADADADADADADA0F
:10015000DA5D5DDADADADA5D6FB76F665DDA5D6F48
:100160005E00FF5E6F5D665EFF00FFFF5E66665EBF
:10017000FFFF00FF5E665D6F5EFFFF5E6F5DDA5D35
:10018000666F6F665DDADADADADADADADADADADA0A
:10019000DADADADADADA3F3F3FDA3F3F3FDADA3FFC
:1001A0003F3F3F3FDADADADA3F3F3FDADADADA3F87
:1001B0003F3F3F3FDADA3F3F3FDA3F3F3FDADADAAD
:1001C000DADADADADADA13AD5B5B64125C65AE5C5C
:1001D0005C6554AE65AE5D5C5CA65C5C145C5C5CAE
:1001E0006553135C14145C130A135C5C13130A5CF0
:1001F0005C130A0A130A0A1365AE6D5C0A0213B790
:100200006EB7B66E0A0A0A5C1B131B131313121384
:100210001C1C1C13131C131B130A0A0A0A135C0A66
:1002200064645C5C1309135C645C5C131309131B4A
:100230005C1B13130A0A0A131313130A0A0A09137D
:1002400012131309120A13120A0A1309130A120AC3
:10025000130A091313130A0A5B130A13120A13135E
:1002600064120A1B5C131C121B0A0A1B1B131313B8
:10027000130A0A131B13090A12120A12120A0A0B92
:100280000A0B0A0A4B0ADADA116B236B1A23DADA41
:100290000A0911111111DA23232A11232212121033
:1002A00010231123221810100910115B1111101ABC
:1002B000111810101111101011100A09101110103E
:1002C000DA090A13130A231A6B236B11DADA1111F4
:1002D0001111090ADADA122223112A2323DA182249
:1002E00023112310101211115B111009101011119C
:1002F000101018111A101110090A101110100A13F9
:10030000130A09DA101023747423231223231A23E7
:1003100023222323111811181810101022221A104A
:10032000101010101010101A1210101010090910CF
:10033000101009090A0A130A0A0A13130A1C0A0AE6
:100340000A655C1B09132223222323231A7410112C
:100350001111111111181B2222222311222309101D
:100360001011181122231A1110101111112311103C
:100370001010111810100A5C131218111009655C86
:100380001B13090913131C13135C1B1B0A130A0A02
:100390000A1313130A130A0A0A13130A0A0A64DA5D
:1003A000DA090A4B5BDADADADADADADADADADADA5C
:1003B000DADADADADADADADADADADADADADADADA9D
:1003C000DADADADADADA13130A5C13131313120A1D
:1003D000135C121C0A1C130A131B130A13131212A8
:1003E000090A0B0A0A13DADADADA09DADA09DADAE6
:1003F000DADADADADADADADADADADADADADADADA5D
:10040000DADADADADADADADADADADADADADADA9096
:10041000DADADA90DADADA98DADADA98DADADA984C
:10042000DADADA98DADADAEADADADAEADADA98F278
:1004300098DA98F298DAEAF2EADAEAF2EADAEAF232
:10044000EADAEAF2EADAF2E1E1F2E190EAEAF2D893
:10045000E1F29898F2EAEAE1A1EA90EAF2E9F2E13F
:1004600098EA98F2E9E9F2E190E1D9F2E1E1EAE112
:10047000989898F2E198E9E19090E1F2E1F2E1E1F7
:1004800098E1F2E198EADADADADADADADADADADA1A
:10049000DA5D5DDADADADA5D6FB76F665DDA5D6F05
:1004A0005E003F5E6F5D665E3F003F3F5E66665E7C
:1004B0003F3F003F5E665D6F5E3F3F5E6F5DDA5DB2
:1004C000666F6F665DDADADADADA33DADADADADA6E
:1004D000DADA3233DADADADADADA337B2ADADADA81
:1004E000DADADA32732A2ADADA21DADA73323333F1
:1004F0002A22212A7C33DA33332A212A3333DADAE7
:1005000032332A21332ADADADADADADADADADADA5A
:10051000DADADA2A2ADADADADA2A2A63DADADADA72
:1005200032325BDADADADA2A325BDADADADA2A3229
:1005300029DADA737B332A2A2132337332DA292912
:100540002A33332ADADA6EB7B6B7B7B76E02B7B75F
:10055000B6B76E6EB70A5C1CB76EB66EAE1313B745
:100560006EAEAE6E6E521313AEB6AE65135CDA0BA2
:100570000B0A530B6DDADADADADADADADADADADA3D
:10058000DADADADADADA121213131B1B13131B137B
:10059000131312131C131B0A0A0A1313131C12132E
:1005A000131C0A0A0B1C13131C131313131313131A
:1005B000130A131313130A130A0A13130A130A0B49
:1005C0000A0A0A0A09130A135C13131313120A13F3
:1005D00013130A0A5C5C130A0A0A09125C641312F8
:1005E000130A0A135C5C1B130A130A135C1B131314
:1005F000130A0A131B1B121313130B0A0A130A12F2
:100600000A1252090A0ADADADA1313131313DADABE
:10061000DADA0A1C0A1CDADADADA0A0A1B0ADADA85
:10062000DADA13120A0ADADADADA1212DA51DADA72
:10063000DADADA0ADADADADADADADADADADADADAEA
:10064000DADADADADADA1313131313DADADA1C0A7B
:100650001C0ADADADADA0A1B0A0ADADADADA0A0A57
:100660001213DADADADA51DA1212DADADADADADA92
:100670000ADADADADADADADADADADADADADADADAAA
:10068000DADADADADADA131213131B1B1313DA13BA
:10069000131312131C13DA0A0A0A1313131CDA12A7
:1006A000131C0A0A0B1CDADA1C1313131313DADAFD
:1006B000130A13131313DADADA0A13130A13DADA42
:1006C000DA0A0A0A09130A135C1313130A4B0A13F2
:1006D00013130A0A5CDA130A0A0A09125CDA131203
:1006E000130A0A135CDA1B130A130A13DADA131358
:1006F000130A0A13DADA121313130BDADADA0A120C
:100700000A1252DADADADADA5ABDFE5ADADADA5AE2
:10071000FEFEFFFE5ADA11B5FFFEFEFEB51111B561
:10072000FEFEFEFEFE1111B5FEFFFEFFFE1111B52D
:10073000BDFEFEFEB511DA11B5BDBDB511DADADACE
:1007400011115A11DADA91915ABDFE5A9191915ACA
:10075000FEFEFFFE5A9111B5FFFEFEFEB51111B56A
:10076000FEFEFEFEFE1111B5FEFFFEFFFE1111B5ED
:10077000BDFEFEFEB5119111B5BDBDB511919191B2
:1007800011115A119191DADADADADADADADADADA36
:10079000DADADADADADADADA030406FF0707DADABB
:1007A000DADA4080C0C0DADADA4080FFC0C0DADAD4
:1007B000DA4080C0C0C0DADADADA405D5E67DADAE1
:1007C000DADADA405D5EDADADADADADADADADADA1C
:1007D000DADADADADADA0606040303DADADAC08019
:1007E0004040DADADADAC0C0804040DADADAC0C093
:1007F000804040DADADA5E5D4040DADADADA5D402B
:1008000040DADADADADADADADADADA081018FFFFF6
:10081000FFFFFF081820DA5BADADADFF1828DADA6C
:10082000DADADA10AD18DADADADA08101820DADAF9
:10083000DADA10181828DADADADA10182028DADA10
:10084000DADA095BA4A41008DADADADADADA1808F4
:10085000DADADADADADA18ADDADADADADADA181073
:10086000ADDADADADADA18181008080808DA28280F
:100870002820201818102828282828201818A4A470
:10088000A4A4ADF6A45BDADADADADADADADADADAFA
:10089000DADADADADADADADADADADADADADADADAB8
:1008A000DADADA5DB767DADADADADA5D6667DADA1F
:1008B000DADADADA5D66DADADADADA525BF6DADA74
:1008C000DADADA030406DADADADADADADADADADA09
:1008D000DADADADADADADADADADADADADADA665D69
:1008E000DADADADADADA665DDADADADADADA5DDAD6
:1008F000DADADADADADA5B52DADADADADADA04030C
:10090000DADADADADADA9191919191919191919121
:1009100091919191919191919191919191919191C7
:100920009191915DB76791919191915D6667919178
:10093000919191915D669191919191525BF6919116
:10094000919191030406919191919191919191913D
:100950009191919191919191919191919191665DE6
:10096000919191919191665D9191919191915D910A
:100970009191919191915B529191919191910403F7
:10098000919191919191DADADADADADADADADADA7D
:10099000DADADADADADADADADADADADADADADADAB7
:1009A000DADADADADADADADADADADADADADADADAA7
:1009B000DADADADADADADADADADADA525252DADA2F
:1009C000DA52525B5B5BDADADADADADADADADADA14
:1009D000DADADADADADADADADADADADADADADADA77
:1009E000DADADADADADADADADADADADADADADA52EF
:1009F000525D67DADADA525B5D5BDA5EDADA52AD03
:100A00005B52DADADADADADADADADADA0818DADAE1
:100A1000DADADA081807DADADADADA080818DADA03
:100A2000DADADA083808DADADADADA081808DADAD2
:100A3000DA0808180818DADA081838280808DA086E
:100A400018381808180808DADADADADADADA1808F8
:100A5000DADADADADADA0808DADADADADADA38080E
:100A6000DADADADADADA1808DADADADADADA08180E
:100A70000808DADADADA0828381808DADADA1808C8
:100A800018381808DADADADADADADADADADADADABE
:100A9000DADADADADADADADADADADADADADADADAB6
:100AA000DADADA141E14DADADADA141E2726DADAD7
:100AB000DADA1D262727DADADADA1D1E2627DADA4D
:100AC000DADA141D1E1DDADADADADADADADADADA82
:100AD000DADADADADADADADADADADADADADA1D1EEF
:100AE000DADADADADADA131D1EDADADADADA261321
:100AF0001EDADADADADA27261DDADADADADA181DB5
:100B000013DADADADADADADADADADADA405DDADA23
:100B1000DADADADA4080DADADADADA4080C0DADA37
:100B2000DADA4080C05DDADADA4080FF5D5EDADA78
:100B3000DA40805D5E67DADADADA405D6767DADA72
:100B4000030406FF07074040DADADADADADA40406F
:100B5000DADADADADADA804040DADADADADAC080F7
:100B60004040DADADADA5EC0804040DADADA5E5E35
:100B7000804040DADADA5E5D4040DADADADA060638
:100B8000040303DADADA9191919191081018FFFFCA
:100B9000FFFFFF081820915BADADADFF18289191C4
:100BA00091919110AD189191919108101820919107
:100BB00091911018182891919191101820289191D5
:100BC0009191095BA4A410089191919191911808B9
:100BD00091919191919118AD91919191919118105C
:100BE000AD91919191911818100808080891282842
:100BF0002820201818102828282828201818A4A4ED
:100C0000A4A4ADF6A45BDADADADA03040606DADACB
:100C1000DA0304F60607DADA03040606ADFFDA03A0
:100C20000406060752FFDA0404060607A4ADDA0339
:100C3000040606F60707DADA030406060707DADA17
:100C4000DA0304040606060403DADADADADA06F668
:100C50000403DADADADAAD06060403DADADA52077E
:100C600006060403DADAA40706060404DADA07F64D
:100C700006060403DADA0706060403DADADA0604FB
:100C80000403DADADADA919191910304060691917C
:100C9000910304F60607919103040606ADFF910344
:100CA0000406060752FF910404060607A4AD91034B
:100CB000040606F6070791910304060607079191BB
:100CC000910304040606060403919191919106F69E
:100CD000040391919191AD060604039191915207FD
:100CE000060604039191A40706060404919107F6F1
:100CF00006060403919107060604039191910604E8
:100D0000040391919191DADA525B5BA4ADA4DA52BB
:100D10005B5BA4F6ADADDA525BA4F6ADADADDA52D5
:100D20005BA4ADADADADDA525B5BA4ADADA4DADAD8
:100D3000525B5BA4A4A4DADADA525B5B5B5BDADABF
:100D4000DADA095252525B52525209DADADAA45B09
:100D50005B525209DADAA45B5B5B5252DADAA45BCB
:100D60005B5B5252DADAA45B5B5B5252DADA5B5BB2
:100D70005B5252DADADA5B525252DADADADA525289
:100D800009DADADADADADA08381808080818DA08D4
:100D9000183838083808DADA081828081808DADAAB
:100DA000DA0808080808DADA081828380808DA081B
:100DB000182838380838DA08182838380828DADACD
:100DC000081828380818080808183808DADA38081F
:100DD00038381808DADA1808281808DADADA0808C9
:100DE0000808DADADADA0838281808DADADA083835
:100DF00038281808DADA083838281808DADA08182B
:100E0000281808DADADADADADADADA131418DADAD7
:100E1000DADADADA1028DADADADADA181020DADAF4
:100E2000DA1828180818DADADADADADADA18DADAAE
:100E300010DA08DA1820DA0818DA28102010201042
:100E40002018101820102813DADADADADADA101893
:100E5000281808DADADA080808DADADADADA10DA78
:100E6000DADADADADADA18DADADADADADADA181030
:100E700008DA1810DADA20081018201020DA10101A
:100E8000181810181018DADADADADADADADADADA5E
:100E9000DADADA5D5D5DDADADA5D5D6FBFFFDADA84
:100EA0005D6FFFFFFFFFDA5DBFFFFF6F5D5DDA5D26
:100EB000FFFF5D5D66665DFFFF5D5D666F6F5DFFF9
:100EC000BF5D6F6F6F6FDADADADADADADADA5D5DC0
:100ED0005DDADADADADAFFBF6F5D5DDADADAFFFF00
:100EE000FFBF6F5DDADA66FFBFFFBF775DDA665D71
:100EF000FFBF77BF5DDA6F665D77BF773F5D6F6677
:100F000066BF773F775DDADADADADADADADADADAAE
:100F1000DADADA5D5D5DDADADADA5D5D7777DADA68
:100F2000DADA5D7777BFDADADA5D775D5D5DDADAD6
:100F3000DA6F5D5D5D5DDADADA775D5D5D66DADABE
:100F40005D775D5D5D6FDADADADADADADADA5D5DBD
:100F50005DDADADADADA6F5D5D5DDADADADABF77CE
:100F60006666DADADADABFBF6F6666DADADA77BFD0
:100F7000775D66DADADABF77BF6F6666DADA77BF8F
:100F8000BF6F6F6FDADADADADADADADADADADADA1D
:100F9000DADADADA5D5DDADADADADADA5D66DADA9C
:100FA000DADADADA666FDADADADADADA6F77DADA4E
:100FB000DADADADA77BFDADADADADADABFBFDADA45
:100FC000DADADADABFFFDADADADADADADADA5D5D71
:100FD000DADADADADADA665DDADADADADADA6F6641
:100FE000DADADADADADA776FDADADADADADABF77AD
:100FF000DADADADADADABFBFDADADADADADAFFBF7D
:10100000DADADADADADADADADADADADADADADADA40
:10101000DADADA5D5D5DDADADADA5D5D5D6FDADA89
:10102000DADA666F77BFDADADA666F66BF6FDADA56
:10103000DA6F6F77BF5DDADADA6F6FBF6F66DADAB1
:101040006FBFBF776F6FDADADADADADADADA5D5DD4
:101050005DDADADADADA77BF6F5DDADADADABF7751
:10106000776FDADADADA5D6F77BF5DDADADA5D5D8B
:10107000BF776FDADADA5D5D6F77BFDADADA5D5D96
:101080006FBF775DDADADADADADADADADADADADA26
:10109000DADADADADADADADADA5D6640DADADADA3B
:1010A000DA5D6740DADA0704665D665D0407DADA5E
:1010B000DA5D6740DADADADADA5D6640DADADADAA5
:1010C000DA5D6740DADADADADADADADA5151DADA1C
:1010D000DADADA51929BDADADADA519AF5FEDADA0A
:1010E000DADA92ECFFFFDADADADA92F5FFFFDADA2F
:1010F000519292ECFFFF5192A3EDEDF6FFFF519B51
:10110000F6FFFFFFFFFF5151DA51515151519B9AA8
:101110009292E4F5F6ECFFF6A3ECFFFFFFFFFFFF72
:10112000F5F5FFFFFFFFFFFFFEF6FFFFFFFFFFFFED
:10113000FFFFFFFFFFFFFFFFFFFFFFFFFFFFFFFFBF
:10114000FFFFFFFFFFFF51DADADADADADADA51927B
:10115000DADADADADADAED5192DADADADADAF6A4C7
:101160009B5192DADADAF6FFF6EC51DADADAFFFFBF
:10117000FFF59B51DADAFFFFFEF59B51DADAFFFF4C
:10118000FEF6ED51DADAF2E1E1F2E190EAEAF2D8C4
:10119000E1F29898F2EAEAE1A1EA90EAF2E9F2E1F2
:1011A00098EA98F2E9E9DAE190E1D9F2E1E1DADAF4
:1011B000989898F2E198DAE19090E1F2E1F2DAE1C0
:1011C00098E1F2E198EAEAEA90E1F2E1E1F2EAF28A
:1011D0009898F2E1D8F2E9F2EA90EAA1E1EAE9E9C5
:1011E000F298EA98E1F2E1E1F2D9E190E1DA98E1EE
:1011F000F2989898DADAF2E1F2E19090E1DAEA987E
:10120000E1F2E198E1DA5DFF6F5D6F6F6F6F5DFF97
:101210006F5D6F6F6F6F5DFFFF5D6F6F6F6FDA5D9B
:10122000FFBF666F6F6FDA5DBFFFBF776F6FDADA90
:101230005D6F77BF77BFDADADA5D5D6FBF77DADAD5
:10124000DADADA5D5D5D6F665D5D5D5D3F5D6F6F36
:101250006666665D775D6F6F6F6F66BF3F5D6F6FD0
:101260006F6FBF3F5DDA6F6FBF773F775DDA773FB4
:10127000773F6F5DDADA3F776F5D5DDADADA5D5D11
:101280005DDADADADADADADA5DBF5D5D666FDADAAC
:101290005D775D5D666FDADADA776F5D6F6FDADA88
:1012A000DA6FBF666F6FDADADA5D77BF666FDADA48
:1012B000DADA5D77BF77DADADADA5D5D773FDADAE4
:1012C000DADADA5D5D5D6F6FBF776F6FDADA6F6FF5
:1012D000BF6F6F6FDADA6F373F6F6666DADA6FBF4C
:1012E000775D66DADADABF776F6666DADADA773F81
:1012F0006666DADADADA6F5D5D5DDADADADA5D5D12
:101300005DDADADADADADADADADADADAFFFFDADA70
:10131000DADADADABFFFDADADADADADABFBFDADA59
:10132000DADADADA77BFDADADADADADA6F77DADA69
:10133000DADADADA666FDADADADADADA5D66DADADD
:10134000DADADADA5D5DFFFFDADADADADADAFFBFA3
:10135000DADADADADADABFBFDADADADADADABF77A1
:10136000DADADADADADA776FDADADADADADA6F668A
:10137000DADADADADADA665DDADADADADADA5D5DB8
:10138000DADADADADADADADA6FBFBF776F6FDADA97
:101390006FBFBF776F6FDADADA6F6F3F376FDADA06
:1013A000DA6F6F77BF66DADADA666F6F77BFDADA2D
:1013B000DADA66663F77DADADADA5D5D5D6FDADA55
:1013C000DADADA5D5D5D665D5D5DBF5DDADA6F5D5F
:1013D0005D5D775DDADA6F5D5D6F77DADADA6F5D62
:1013E00066BF6FDADADA5D66BFBF5DDADADA77BF79
:1013F000BF6FDADADADA3F776F5DDADADADA5D5DB3
:101400005DDADADADADADADADA525B40DADADADA5A
:10141000DA5D6740DADADADADA5D6640DADADADA41
:10142000DA5D6740DADADA5D665D675D5D40DADA1B
:101430005D5D665D40DADADADA5D6740DADADADA1B
:10144000DA525B40DADA51A3F6FFFFFFFFFF51A348
:10145000F6FFFFFFFFFF519AEDFFFFFFF6FEDA9266
:10146000A3EDF6EDECF6DA51929B9B9BE4ECDADA15
:1014700051515192E4E4DADADADADA5192A3DADAA3
:10148000DADADADA5151FFFFFFFFFFFFFFFFFFFF5C
:10149000FFFFFFFFFFFFFFFFFFFFFEFFFFFFFFFF5D
:1014A000FFFFF6FFFFFFF6FEF6F5ECF6FEF6E4ECC6
:1014B000ECA3A3ECECECA3A39B92929A9B9B5151BF
:1014C00051DADA515151FFFFFFFFFFA351DAFFFF5D
:1014D000FFFFFFEC51DAFFFEFFFFF6E451DAF6ED15
:1014E000F5F5ECA351DAEDA39B9B9A51DADAA39AB6
:1014F000515151DADADA5251DADADADADADA51DA81
:10150000DADADADADADADADAE1F2E190EAEADADA3F
:10151000E1F29898F2EADADADAEA90EAF2E9DADA6B
:10152000DAEA98F2E9E9DADADADAD9F2E1E1DADAF2
:10153000DADA98F2E198DADADADADAF2E1F2DADA39
:10154000DADADAE198EAEAEA90E1F2E1DADAEAF202
:101550009898F2E1DADAE9F2EA90EADADADAE9E935
:10156000F298EADADADAE1E1F2D9DADADADA98E10B
:10157000F298DADADADAF2E1F2DADADADADAEA98F0
:10158000E1DADADADADADADADADAEBF5F6F6DADA50
:10159000DAECFFFFFFFFDADADAFEFFFFFFFFDADA4D
:1015A000DAFEFEFEF6F6DADADAF4F5F4ECECDADA84
:1015B000DADAE3E3E2EADADADADAE2E1F2FCDADA18
:1015C000DADAE2EAF2FBF5F6F5F5F5F5F5F5FFFF07
:1015D000FFFFFFFFFFFFFFFFFFFFFFFFFFFFFEFE1D
:1015E000F5F5F6FEFFFFF5F4ECEBECECFEFFEAEBB5
:1015F000E1D89090ECFFF2FBE9E1D990F6F6F2F237
:10160000E1EAE190ECEAF5F5F5F5F5F5F5F5FFFF22
:10161000FFFFFFFFFFFFFFFFFFFFFFFFFFFFFFFFDA
:10162000FEF6FEFFFFFEFFFFF5ECECF5FEF5FFFE1C
:10163000F4A298D9EBEBF5F5E3EAF2E999E2909A96
:10164000EAFBF2E99098F6F6F5EBDADADADAFFFF80
:10165000FFFFECDADADAFFFFFFFFFEDADADAF6F69E
:10166000FEFEFEDADADAECECF4F5F4DADADAEAE2E3
:10167000E3E3DADADADAFCF2E1E2DADADADAFBF236
:10168000EAE2DADADADADADADADADA3F3F3FDADA73
:10169000DADADADA3F3FDADADADADADADA3FDADA7B
:1016A000DADADADADADADADADADADADADADADADA9A
:1016B000DADADADADADADADADADADADADADADADA8A
:1016C000DADADADADADADADADADADADADADA3F3FB0
:1016D000DADADADADADA3F3F3FDADADADADA3F3F71
:1016E0003F3FDADADADA3F3F3F3F3FDADADADA3F32
:1016F0003F3F3FDADADADA3F3F3F3FDADADADA3F22
:101700003F3F3FDADADADADADADADAEAF2F2DADACA
:10171000DADADAE1EAF2DADADADADAE2E9EADADAD3
:10172000DADADADAE1F2DADADADADADAEAF2DADAD2
:10173000DADADADADAEADADADADADADADADADADAF9
:10174000DADADADADADAF2E1E1F2E190EAEAF2D8C8
:10175000E1F29898F2EAEAE1A1EA90EAF2E9F2E12C
:1017600098EA98F2E9E9F2E190E1D9F2E1E1EAE1FF
:10177000989898F2E198E9E19090E1F2E1DAE1E1FC
:1017800098E1DAEADADAE150EAFBF2E99098E190DE
:10179000E9FCF2E99898E190E1FBF2F298989890D0
:1017A00098F2F3E9E998989890F2F3E1E998989023
:1017B00099F2F3E1E990DADADAEBF2E1A190DADA20
:1017C000DADAF2E2DA90F2F2EADADADADADAF2EA3B
:1017D000E1DADADADADAEAE9E2DADADADADAF2E11C
:1017E000DADADADADADAF2EADADADADADADAEADA21
:1017F000DADADADADADADADADADADADADADADADA49
:10180000DADADADADADADADADADADADADADADADA38
:10181000DADADADADADADADADADADADADADADADA28
:10182000DADADADADA3FDADADADADADA3F3FDADAE9
:101830003F3F3F3F3F3FDADADA3F3F3F3F3FDADAB1
:10184000DADADADADADADA3F3F3F3FDADADADA3FFF
:101850003F3F3FDADADA3F3F3F3F3FDADADA3F3FF6
:101860003F3FDADADADA3F3F3FDADADADADA3F3F15
:10187000DADADADADADA3FDADADADADADADADADA63
:10188000DADADADADADADADADADA09090A13DADAF1
:10189000DADADA090909DADADADADADADA09DADAEC
:1018A000DADADADADADADADADADADADADADADADA98
:1018B000DADADADADADADADADADADADADADADADA88
:1018C000DADADADADADA131313131313130A0A0A59
:1018D0000B131313130A090A131313130A0A090922
:1018E00009090A0A0A0BDA1209090A121314DADAC8
:1018F000DADADADADADADADADADADADADADADADA48
:10190000DADADADADADA0A0A0A0A0ADADADA0A09E8
:10191000090909DADADA0A135B1313DADADA5C5C3A
:101920001C14145CDADA5D1D5D14141B12DADADAA9
:10193000DADADADADADADADADADADADADADADADA07
:10194000DADADADADADADADADADA090A145DDA1C99
:101950006E261E151E66DA6E776F67675E5EDA6545
:10196000666715155F5FDA12130C14151515DA1278
:101970000A0A0A0A0B0BDADADADADADADA09DADA76
:10198000DADADADADADA141414141415155D666783
:101990006767675E16165F5E665D5D5D5D555F5FDE
:1019A0005F5E5E5E5E561515150D0D0D0D0D130B6C
:1019B000140C0C0C0C0C0101020201020202DADA16
:1019C00009090A0A0A0A5E665E6666150C1516168D
:1019D000161E1516565F5555555E5F1E5E15565EF2
:1019E0005E676F6F6F6F0D1515155E6727270C0CFF
:1019F0000B0B0B1D1D1D020A0A0A0A0A0A020B1311
:101A000013130A0A0A0A1414141414130B0A5E5F3F
:101A1000565E561515150D0D0D0D0E1656566F67A3
:101A20005F5E5E5F565627675E15151515151E5DC0
:101A3000140B0B0B0B0B020A0A020A0A0A0A0A0A07
:101A40000A0A0A53DADA0A0A0A0A0A0A0202141409
:101A50001D666F6F6F675E16676F6F67675E565EB6
:101A600016161615151515151515140B0B0B0A0A58
:101A70000101DADADADA09DADADADADADADADADA49
:101A8000DADADADADADA02020A0A0ADADADA675EC5
:101A90005E5E150BDADA161515151566DADA151409
:101AA0000C141D1DDADA0A0A0A0A13DADADADADAAB
:101AB000DADADADADADADADADADADADADADADADA86
:101AC000DADADADADADA9191919191919191919150
:101AD00091919191919191919191910A919191917D
:101AE0009191121291519191919113120A0A91912F
:101AF00091910A0A1B0A919191910A1C0A1C9191D9
:101B0000911313131313919191919191919191913B
:101B100091919191919191910A919191919151917C
:101B20001212919191910A0A1213919191910A1BAB
:101B30000A0A919191911C0A1C0A91919191131397
:101B4000131313919191121213131B1B131391135F
:101B5000131312131C13910A0A0A1313131C911264
:101B6000131C0A0A0B1C91911C131313131391914C
:101B7000130A131313139191910A13130A139191DA
:101B8000910A0A0A09130A135C13131313120A1396
:101B900013130A0A5C91130A0A0A09125C911312C0
:101BA000130A0A135C911B130A130A13919113135E
:101BB000130A0A139191121313130B9191910A12A4
:101BC0000A125291919191919152120A120A919195
:101BD000910B131313129191130A0A13131391917A
:101BE000130A130A131B915C130A0A131213915C54
:101BF00012090A0A0A13915C0A0A1313130A121330
:101C00001313135C130A0A120A12529191911213C0
:101C100013130B9191911313130A0A1391911B1330
:101C20000A130A1391911312130A0A135C91130AEF
:101C30000A0A09125C910A1313130A0A5C910A1327
:101C40005C131313131291919113131313139191A6
:101C500091910A1C0A1C919191910A0A1B0A919177
:101C6000919113120A0A91919191121291519191AD
:101C70009191910A919191919191919191919191DB
:101C800091919191919113131313139191911C0AB6
:101C90001C0A919191910A1B0A0A919191910A0A49
:101CA000121391919191519112129191919191915F
:101CB0000A9191919191919191919191919191919B
:101CC0009191919191911C13135C1B1B0A130A0AA9
:101CD0000A1313130A130A0A0A13130A0A0A64914D
:101CE00091090A4B5B91919191919191919191916F
:101CF00091919191919191919191919191919191D4
:101D000091919191919113130A5C13131313120A79
:101D1000135C121C0A1C130A131B130A131312124E
:101D2000090A0B0A0A1391919191099191099191D4
:101D30009191919191919191919191919191919193
:101D4000919191919191DADADADADA09535CDADA7F
:101D5000DA0909535C5CDADADA01090A5353DA0961
:101D60000909090A530A01090A530A09270A01093C
:101D70000A535C530A53DA090A0A0A090A0ADA0101
:101D8000090A090A0A09530ADADADADADADA5C0A3B
:101D90005C5C0A5CDADA0A0A530A535C5CDA6FBFED
:101DA0000A0A09535309530953FF0909090A370954
:101DB000096F530A0A533753270A5337370A0A0A57
:101DC0000927535C530AE8E89A9A9A9A9A9AE8E89B
:101DD000E8E8E8E89A9A9A9AE8F5F5F5E8E89A9A30
:101DE0009A9A9A9AF5F5E8E89A9A9A9A9A9AE8E865
:101DF000E8E8E8E89A9A9A9AE8F5F5F5E8E89A9A10
:101E00009A9A9A9AF5F59A9A9A9A9A9AE8E89A9AE0
:101E1000E8E8E8E8E8E8E8E8F5F5F5E89A9AF5F59D
:101E20009A9A9A9A9A9A9A9A9A9A9A9AE8E89A9A76
:101E3000E8E8E8E8E8E8E8E8F5F5F5E89A9AF5F57D
:101E40009A9A9A9A9A9A9A9A9A9A9A9AF5F5E8E8A0
:101E50009A9A9A9A9A9AE8E8E8E8E8E89A9A9A9A0E
:101E6000E8F5F5F5E8E89A9A9A9A9A9AF5F5E8E885
:101E70009A9A9A9A9A9AE8E8E8E8E8E89A9A9A9AEE
:101E8000E8F5F5F5E8E8F5F59A9A9A9A9A9A9A9A01
:101E90009A9A9A9AE8E89A9AE8E8E8E8E8E8E8E896
:101EA000F5F5F5E89A9AF5F59A9A9A9A9A9A9A9A7D
:101EB0009A9A9A9AE8E89A9AE8E8E8E8E8E8E8E876
:101EC000F5F5F5E89A9A9A9AE8F5F5F5E8E89A9A18
:101ED0009A9A9A9AF5F5E8E89A9A9A9A9A9AE8E874
:101EE000E8E8E8E89A9A9A9AE8F5F5F5E8E89A9A1F
:101EF0009A9A9A9AF5F5E8E89A9A9A9A9A9AE8E854
:101F0000E8E8E8E89A9AE8E8F5F5F5E89A9AF5F548
:101F10009A9A9A9A9A9A9A9A9A9A9A9AE8E89A9A85
:101F2000E8E8E8E8E8E8E8E8F5F5F5E89A9AF5F58C
:101F30009A9A9A9A9A9A9A9A9A9A9A9AE8E89A9A65
:101F4000E8E8E8E8E8E8E8E8E8E8E8E89A9A9A9A49
:101F5000E8F5F5F5E8E89A9A9A9A9A9AF5F5E8E894
:101F60009A9A9A9A9A9AE8E8E8E8E8E89A9A9A9AFD
:101F7000E8F5F5F5E8E89A9A9A9A9A9AF5F5E8E874
:101F80009A9A9A9A9A9A9A9AE8E8E8E8E8E8E8E841
:101F9000F5F5F5E89A9AF5F59A9A9A9A9A9A9A9A8C
:101FA0009A9A9A9AE8E89A9AE8E8E8E8E8E8E8E885
:101FB000F5F5F5E89A9AF5F59A9A9A9A9A9A9A9A6C
:101FC0009A9A9A9AE8E8F5F5F5F5F5F5F5F5F5F547
:101FD000F5F5F5F5F5F5F5F5F5E8F5F5E8F5E8F5D8
:101FE000F5F5F5E8F5E8F5E8F5F5F5F5E8F5F5F5D5
:101FF000E8F5F5E8E8E8E8E8F5E8E8F5F5F5E8E813
:10200000E8F5F5F5E8E8F5F5F5F5F5F5F5F5F5F5A7
:10201000F5E8F5F5F5F5F5F5F5F5F5F5E8F5F5F58A
:10202000E8E8E8F5F5F5E8E8F5F5F5E8E8F5F5F5BB
:10203000E8E8F5F5F5E8F5F5F5E8E8E8F5F5F5E8AB
:10204000E8E8E8DBE8E8F5F5F5F5F5F5F5F5F5F59B
:10205000F5F5F5F5F5F5F5F5E8F5F5F5F5F5F5F53D
:10206000F5F5F5E8E8E8E8F5E8E8E8F5F5F5E8E895
:10207000F5F5E8E8E8F5F5F5E8E8F5F5F5F5E8E86B
:10208000E8E8E8E8E8E80A0A6F6F0A530ABF535322
:102090000A09090937FF535C5C530A0A6F37533743
:1020A0005C5C530A536F37BF53530A0A530A6F37A6
:1020B0000A0A090A0A0A276F0A0A0A0A0A090A0A00
:1020C0006F0A0A090927DA0109090A0A0A09DA095D
:1020D00009090A090909DA090A0101090901DADA13
:1020E000090101010909DADADA0101090101DADA83
:1020F000DADA01010A09DADADADADA010109DADA16
:10210000DADADADADADA0909090A535C0A090909BA
:10211000010A090A0A09090A0A0109092701010134
:102120000909010101DA090101010901DADA0101F4
:10213000010101DADADA01010101DADADADADADAEE
:10214000DADADADADADAE8E89A9A9A9A9A9AE8E837
:10215000E8E8E8E89A9A9A9AE8F5F5F5E8E89A9AAC
:102160009A9A9A9AF5F5E8E89A9A9A9A9A9AE8E8E1
:10217000E8E8E8E89A9AF5F5E8F5F5F5E8E8F5F520
:10218000F5F5F5F5F5F59A9A9A9A9A9AE8E89A9AF1
:10219000E8E8E8E8E8E8E8E8F5F5F5E89A9AF5F51A
:1021A0009A9A9A9A9A9A9A9A9A9A9A9AE8E89A9AF3
:1021B000E8E8E8E8E8E8E8E8F5F5F5E8F5F5F5F544
:1021C000F5F5F5F5F5F59A9A9A9A9A9AF5F5E8E8FB
:1021D0009A9A9A9A9A9AE8E8E8E8E8E89A9A9A9A8B
:1021E000E8F5F5F5E8E89A9A9A9A9A9AF5F5E8E802
:1021F0009A9A9A9A9A9AE8E8E8E8E8E89A9AF5F5B5
:10220000E8F5F5F5E8E8F5F59A9A9A9A9A9A9A9A7D
:102210009A9A9A9AE8E89A9AE8E8E8E8E8E8E8E812
:10222000F5F5F5E89A9AF5F59A9A9A9A9A9A9A9AF9
:102230009A9A9A9AE8E89A9AE8E8E8E8E8E8E8E8F2
:10224000F5F5F5E8F5F59A9AE8F5F5F5E8E89A9ADE
:102250009A9A9A9AF5F5E8E89A9A9A9A9A9AE8E8F0
:10226000E8E8E8E89A9A9A9AE8F5F5F5E8E89A9A9B
:102270009A9A9A9AF5F5E8E8F59A9A9A9A9AF5F55B
:10228000E8E8E8E8F5F5E8E8F5F5F5E89A9AF5F50F
:102290009A9A9A9A9A9A9A9A9A9A9A9AE8E89A9A02
:1022A000E8E8E8E8E8E8E8E8F5F5F5E89A9AF5F509
:1022B0009A9A9A9A9A9A9A9A9A9A9AF5E8E8F5F5D1
:1022C000E8E8E8E8F5F5E8E8E8E8E8E89A9A9A9AAC
:1022D000E8F5F5F5E8E89A9A9A9A9A9AF5F5E8E811
:1022E0009A9A9A9A9A9AE8E8E8E8E8E89A9A9A9A7A
:1022F000E8F5F5F5E8E8F5F59A9A9A9AF5F5E8E83B
:10230000F5F5F5F5F5F59A9AE8E8E8E8E8E8E8E89B
:10231000F5F5F5E89A9AF5F59A9A9A9A9A9A9A9A08
:102320009A9A9A9AE8E89A9AE8E8E8E8E8E8E8E801
:10233000F5F5F5E89A9AF5F59A9A9A9AF5F5F5F57C
:10234000F5F5F5F5E8E8E8DBE8E8E8E8E8E8E8E8E6
:10235000E89191E8DBE89191E891E891E8E89191C2
:10236000919191919191919191919191919191915D
:10237000919191919191919191919191919191914D
:10238000919191919191E8E8DBE8E8E8E8E8E8E8E4
:10239000E8E8E8E8E89191E89191E891E8E891911E
:1023A000919191919191919191919191919191911D
:1023B000919191919191919191919191919191910D
:1023C000919191919191E8DBE8E8E8E8E8E891E8FB
:1023D000E89191E891919191E891E8919191919191
:1023E00091919191919191919191919191919191DD
:1023F00091919191919191919191919191919191CD
:10240000919191919191F5F5F5F5F5F5F5F5E8F5E1
:10241000F5F5F5F5F5F5F5F5F5E8E8E8F5F5F5F593
:10242000E8F5F5E8E8F5E8E8F5F5F5F5E8F5F5F5AA
:10243000F5E8E8F5F5E8E8E8E8E8E8E8E8F5E8E8E8
:10244000E8E8E8DBE8E8919191E8E8E8E8E89191CC
:102450009191E8E8E89191E89191E891E8E891910B
:10246000919191919191919191919191919191915C
:10247000919191919191919191919191919191914C
:10248000919191919191DADADADADADADADADADA62
:10249000DADADADADADADADADADADADADADADADA9C
:1024A000DADADADADADADADADADADADADADADADA8C
:1024B000DADADADADADADADADADA00DADADADADA56
:1024C00000DA00DADADADADADADADADADADA00DAFA
:1024D000DADADADADADA0057DADADADADADA005716
:1024E000DADADA00DADA0005DADADA00DADADA0089
:1024F000DADA0000DADADADADADA005700DADADA27
:10250000DADA005700DADADADADADADADADADADA62
:1025100000DADADADADADADA00DADADADADADA00A9
:1025200000DADADADADADA000500DADADADADA0048
:102530005705DADA00DADADA0057DADA0000DADA3E
:10254000DA00DADA0005DADADADADADADADADADA74
:10255000DADADADA00DADADADADADADA0005DADA64
:10256000DADADADA0005DADADADADADA0057DADAD7
:10257000DADADADA0557DADADADADADA5700DADA70
:10258000DADADADA05DADADA000000DADA00DADAE8
:10259000000500DADA00DA0000570000DA00DA009D
:1025A000005700000000DA00005705055705DA0063
:1025B00000575705057F00000557577F7FFF00052F
:1025C000577F7FFF7F7FDADA05DA000500DADA006D
:1025D0000500005700DA00000505575700DA05002E
:1025E0005705570500DA57055705050500DA57570F
:1025F000577F575700DA7F57FF7F570505007F7FCA
:102600007F7F7F7F0500DADADADADADA0005DADAF4
:10261000DADADA005705DADADADA00005705DA0032
:10262000DA0000055705DA00000500057F05000007
:10263000055705577F57000005577F7FFF7F00052F
:10264000577F7F7F7F7FDADADA00DADADADADADA0E
:10265000DA000000DA00DADADA000000DA0000005E
:1026600000000500000005000005570500000505F5
:1026700005577F0500007F575757FF5705057F7F98
:10268000FF7F7F7F5705FFFFFFF5DADAF5FFFFFFDA
:10269000FFFFFFFFFFFFFFFFFFFFFFFFFFFF919126
:1026A000F5FFFFFFFF9191919191919191919191FE
:1026B000919191919191919191919191919191910A
:1026C000919191919191FFFFFFFFF5DADAF5FFFF0C
:1026D000FFFFFFFFFFFFFFFFFFFFFFFFFFFF9191E6
:1026E00091F5FFFFFFFF91919191919191919191BE
:1026F00091919191919191919191919191919191CA
:10270000919191919191F5FFFFFFFFF5DADAFFFFCB
:10271000FFFFFFFFFFFFFFFFFFFFFFFFFFFFFF9137
:102720009191F5FFFFFF91919191919191919191EB
:102730009191919191919191919191919191919189
:10274000919191919191DAF2F2F2F2F2DADAF2F2F7
:10275000F2F2F2F2F2DAF2F2DADADAF2F2DAF2F2D1
:10276000DADADAF2F2DAF2F2DADADAF2F2DAF2F209
:10277000F2F2F2F2F2DADAF2F2F2F2F2DADADADAC9
:10278000DADADADADADADAF2F2F2F2F2DADADAF219
:10279000F2F2F2F2DADADADADAF2F2F2DADADADAF1
:1027A000DAF2F2F2DADADADADAF2F2F2DADADADAF9
:1027B000DAF2F2F2DADADADADAF2F2F2DADADADAE9
:1027C000DADADADADADAF2F2F2F2F2F2DADAF2F2A9
:1027D000F2F2F2F2F2DADADADAF2F2F2DADADADA99
:1027E000F2F2F2DADADADAF2F2F2DADADADAF2F289
:1027F000F2F2F2F2DADAF2F2F2F2F2F2F2DADADA31
:10280000DADADADADADAF2F2F2F2F2F2DADADAF280
:10281000F2F2F2F2F2DADADADAF2F2F2DADADADA58
:10282000F2F2F2DADADADADADAF2F2F2DADAF2F248
:10283000F2F2F2F2F2DAF2F2F2F2F2F2DADADADAF0
:10284000DADADADADADADADAF2F2F2F2DADADAF270
:10285000F2F2F2F2DADADAF2F2DAF2F2DADAF2F2E8
:10286000DADAF2F2DADAF2F2F2F2F2F2F2DAF2F2C0
:10287000F2F2F2F2F2DADADADADAF2F2DADADADA10
:10288000DADADADADADAF2F2F2F2F2F2F2DAF2F2D0
:10289000F2F2F2F2DADAF2F2DADADADADADAF2F2D8
:1028A000F2F2F2F2DADADADADADAF2F2F2DADAF2C8
:1028B000F2F2F2F2DADAF2F2F2F2F2DADADADADAA0
:1028C000DADADADADADADAF2F2F2F2F2DADAF2F2C0
:1028D000F2F2F2DADADAF2F2DADADADADADAF2F2B0
:1028E000F2F2F2F2DADAF2F2DADADAF2F2DAF2F258
:1028F000F2F2F2F2F2DADAF2F2F2F2F2DADADADA48
:10290000DADADADADADAF2F2F2F2F2F2F2DADAF267
:10291000F2F2F2F2F2DADADADAF2F2F2DADADADA57
:10292000F2F2F2DADADADADAF2F2F2DADADADAF25F
:10293000F2F2DADADADADAF2F2F2DADADADADADA7F
:10294000DADADADADADADAF2F2F2F2F2DADAF2F23F
:10295000F2F2F2F2F2DAF2F2DADADAF2F2DADAF2E7
:10296000F2F2F2F2DADAF2F2DADADAF2F2DAF2F2D7
:10297000F2F2F2F2F2DADAF2F2F2F2F2DADADADAC7
:10298000DADADADADADADAF2F2F2F2F2DADAF2F2FF
:10299000F2F2F2F2F2DAF2F2DADADAF2F2DADAF2A7
:1029A000F2F2F2F2F2DADADADADADAF2F2DADAF2C7
:1029B000F2F2F2F2F2DAF2F2F2F2F2F2DADADADA6F
:1029C000DADADADADADADADADADADADADADADADA67
:1029D000DAF2F2F2DADADADADAF2F2F2DADADADAC7
:1029E000DADADADADADADADADAF2F2F2DADADADAFF
:1029F000DAF2F2F2DADADADADADADADADADADADAEF
:102A0000DADADADADADADADADADADADADADADADA26
:102A1000DADADADADADAF2F2F2DAF2F2F2DADAF26E
:102A2000F2F2F2F2DADADADAF2F2F2DADADADAF246
:102A3000F2F2F2F2DADAF2F2F2DAF2F2F2DADADA06
:102A4000DADADADADADADADAF2F2F2F2F2DADAF256
:102A5000F2F2F2F2DADAF2F2F2DADADADADAF2F2FE
:102A6000DADADAF2F2DAF2F2F2F2F2F2F2DAF2F2BE
:102A7000DADADAF2F2DAF2F2F2DADAF2F2DADAF2F6
:102A8000F2DADADADADADAF2F2F2F2F2F2DADADAFE
:102A9000F2F2F2F2F2F2DADADADADADAF2DADAF2D6
:102AA000F2DADAF2F2DADAF2F2DADADAF2F2DAF2C6
:102AB000F2F2F2F2F2DADAF2F2F2F2F2DADADADA86
:102AC000DADADADADADADADAF2F2F2F2F2DADAF2D6
:102AD000F2F2F2F2F2DADAF2F2DADADADADADAF296
:102AE000F2DADADADADADAF2F2F2DADADADADADAE6
:102AF000F2F2F2F2F2F2DADADAF2F2F2F2F2DADA2E
:102B0000DADADADADADADAF2F2F2F2F2F2DADADA95
:102B1000F2F2F2F2F2F2DADADADADADAF2F2DAF23D
:102B2000F2DADADAF2F2DAF2F2DADAF2F2DADAF245
:102B3000F2F2F2F2DADADAF2F2F2F2DADADADADA35
:102B4000DADADADADADADAF2F2F2F2F2DADADAF255
:102B5000F2F2F2F2F2DADAF2F2DADADADADADAF215
:102B6000F2F2F2F2DADADAF2F2DADADADADADAF21D
:102B7000F2F2F2F2F2F2DAF2F2F2F2F2F2DADADA95
:102B8000DADADADADADADAF2F2F2F2F2F2DADAF2FD
:102B9000F2F2F2F2F2F2DAF2F2DADADADADADAF2BD
:102BA000F2F2F2DADADADAF2F2F2F2F2DADADAF2AD
:102BB000F2DADADADADADAF2F2DADADADADADAF215
:102BC000DADADADADADADADAF2F2F2F2F2DADAF2D5
:102BD000F2F2F2F2F2F2DAF2F2DADADADADADAF27D
:102BE000F2DADAF2F2F2DAF2F2F2DAF2F2F2DADA55
:102BF000F2F2F2F2F2F2DADADAF2F2F2F2F2DADA2D
:102C0000DADADADADADADAF2F2DADADAF2F2DAF2AC
:102C1000F2DADADAF2F2DAF2F2DADADAF2F2DAF254
:102C2000F2F2F2F2F2F2DAF2F2F2F2F2F2F2DAF2B4
:102C3000F2DADADAF2F2DAF2F2DADADAF2F2DAF234
:102C4000DADADADADADADADADAF2F2F2DADADADA9C
:102C5000DAF2F2F2DADADADADAF2F2F2DADADADA44
:102C6000DAF2F2F2DADADADADAF2F2F2DADADADA34
:102C7000DAF2F2F2DADADADADAF2F2F2DADADADA24
:102C8000DADADADADADADADADAF2F2F2F2DADADA44
:102C9000DADAF2F2F2DADADADADAF2F2F2DADADA04
:102CA000DADAF2F2F2DADADADADAF2F2F2DADADAF4
:102CB000DADAF2F2F2DADADAF2F2F2F2F2DADADAB4
:102CC000F2F2F2F2DADADAF2F2DADAF2F2F2DAF274
:102CD000F2DAF2F2F2DADAF2F2F2F2F2DADADAF264
:102CE000F2F2F2DADADADAF2F2F2F2F2DADADAF26C
:102CF000F2DAF2F2F2DADAF2F2DADAF2F2F2DADA5C
:102D0000DADADADADADADAF2F2F2DADADADADAF2C3
:102D1000F2F2DADADADADAF2F2F2DADADADADAF283
:102D2000F2F2DADADADADAF2F2F2DADADADADAF273
:102D3000F2F2F2F2F2DADAF2F2F2F2F2F2F2DADAD3
:102D4000DADADADADADADAF2F2DADADAF2F2DAF26B
:102D5000F2F2DAF2F2F2DAF2F2F2F2F2F2F2DAF29B
:102D6000F2F2F2F2F2F2DAF2F2DAF2DAF2F2DAF2A3
:102D7000F2DADADAF2F2DAF2F2DADADAF2F2DADA0B
:102D8000DADADADADADADAF2F2F2DADAF2F2DAF213
:102D9000F2F2F2DAF2F2DAF2F2F2F2F2F2F2DAF25B
:102DA000F2DAF2F2F2F2DAF2F2DADAF2F2F2DAF27B
:102DB000F2DADADAF2F2DAF2F2DADADAF2F2DADACB
:102DC000DADADADADADADADAF2F2F2F2F2DADAF2D3
:102DD000F2F2F2F2F2F2DAF2F2DADADAF2F2DAF24B
:102DE000F2DADADAF2F2DADAF2F2DAF2F2DADADA9B
:102DF000F2F2F2F2F2DADADADAF2F2F2DADADADA73
:102E0000DADADADADADAF2F2F2F2F2F2DADADAF27A
:102E1000F2F2F2F2F2DADADADADAF2F2F2DAF2F222
:102E2000DAF2F2F2DADAF2F2F2F2F2DADADAF2F212
:102E3000F2F2DADADADAF2F2DADADADADADAF2F262
:102E4000DADADADADADADAF2F2F2F2F2DADAF2F23A
:102E5000F2F2F2F2F2DAF2F2DADADAF2F2DAF2F2CA
:102E6000DADAF2F2F2DADAF2F2DAF2F2DADADAF202
:102E7000F2F2F2F2F2DADADAF2F2DAF2F2DADADADA
:102E8000DADADADADADAF2F2F2F2F2F2DADADAF2FA
:102E9000F2F2F2F2F2DADADADADAF2F2F2DAF2F2A2
:102EA000DAF2F2F2DADAF2F2F2F2F2DADADAF2F292
:102EB000DAF2F2F2DADAF2F2DADAF2F2F2DADADAB2
:102EC000DADADAF2F2F2DAF2F2F2F2F2F2DAF2F25A
:102ED000F2F2F2F2F2DADAF2F2F2DADADADADADA92
:102EE000F2F2F2DADADADADADAF2F2F2DADAF2F282
:102EF000F2F2F2F2F2DAF2F2F2F2F2F2DADADADA2A
:102F0000DADADADADADAF2F2F2F2F2F2F2DAF2F249
:102F1000F2F2F2F2F2DADADAF2F2F2DADADADADA51
:102F2000F2F2F2DADADADADAF2F2F2DADADADADA71
:102F3000F2F2F2DADADADADAF2F2F2DADADADADA61
:102F4000F2F2DADADADADADAF2F2DAF2F2DADAF239
:102F5000F2F2DAF2F2DAF2F2F2DADAF2F2DAF2F2C9
:102F6000DADADAF2F2DAF2F2DADADAF2F2DAF2F201
:102F7000F2F2F2F2F2DADAF2F2F2F2F2F2DADADAA9
:102F8000DADADADADADAF2F2DADADAF2F2DAF2F211
:102F9000F2DAF2F2F2DADAF2F2DAF2F2DADADAF2B9
:102FA000F2F2F2F2DADADADAF2F2F2DADADADADAD9
:102FB000F2F2F2DADADADADADAF2DADADADADADA11
:102FC000DADADADADADAF2F2DADADAF2F2DAF2F2D1
:102FD000DADADAF2F2DAF2F2DAF2DAF2F2DAF2F279
:102FE000F2F2F2F2F2DAF2F2F2F2F2F2F2DAF2F2F1
:102FF000F2DAF2F2F2DAF2F2DADADAF2F2DADADA71
:10300000DADADADADADAF2F2DADADAF2F2DAF2F290
:10301000F2DAF2F2F2DADAF2F2F2F2F2DADADADA38
:10302000F2F2F2DADADADAF2F2F2F2F2DADAF2F210
:10303000F2DAF2F2F2DAF2F2DADADAF2F2DADADA30
:10304000DADADADADADAF2F2DADADAF2F2DAF2F250
:10305000DADADAF2F2DAF2F2F2DAF2F2F2DADAF2F8
:10306000F2F2F2F2DADADADAF2F2F2DADADADADA18
:10307000F2F2F2DADADADADAF2F2F2DADADADADA20
:10308000DADADADADADADAF2F2F2F2F2F2DAF2F2E0
:10309000F2F2F2F2F2DADADADAF2F2F2DADADADAD0
:1030A000F2F2F2DADADADAF2F2F2DADADADAF2F2C0
:1030B000F2F2F2F2F2DAF2F2F2F2F2F2DADADADA68
:1030C000DADADADADADA911365AE6D5C5C9113B7AD
:1030D0006EB7B66EB7916EB7B6B7B7B76EB7B7B7CC
:1030E000B6B76E6EB7135C1CB76EB66EAE1413B780
:1030F0006EAEAE6E6E141313AEB6AE65135C910B6E
:103100000B0A530B6D91DA1365AE6D5C5CDA13B785
:103110006EB7B66EB7DA6EB7B6B7B7B76EB7B7B742
:10312000B6B76E6EB7135C1CB76EB66EAE1413B73F
:103130006EAEAE6E6E141313AEB6AE65135CDA0BE4
:103140000B0A530B6DDADADADADADADADADADA1308
:1031500065AE6D5C5CDA13B76EB7B66EB7DA6EB794
:10316000B6B7B7B76EB7B7B7B6B76E6EB7135C1C66
:10317000B76EB66EAE1413B76EAEAE6E6E1413139A
:10318000AEB6AE65135CDADADADADADADADADADAD5
:10319000DADADADADADADA1365AE6D5C5CDA13B74A
:1031A0006EB7B66EB7DA6EB7B6B7B7B76EB7B7B7B2
:1031B000B6B76E6EB7135C1CB76EB66EAE1413B7AF
:1031C0006EAEAE6E6E14DADADADADADADADADADAC1
:1031D000DADADADADADADADADADADADADADADA1316
:1031E00065AE6D5C5CDA13B76EB7B66EB7DA6EB704
:1031F000B6B7B7B76EB7B7B7B6B76E6EB7135C1CD6
:10320000B76EB66EAE14DADADADADADADADADADA2F
:10321000DADADADADADADADADADADADADADADADA0E
:10322000DADADADADADADA1365AE6D5C5CDA13B7B9
:103230006EB7B66EB7DA6EB7B6B7B7B76EB7B7B721
:10324000B6B76E6EB713DADADADADADADADADADAE7
:10325000DADADADADADADADADADADADADADADADACE
:10326000DADADADADADADADADADADADADADADA1385
:1032700065AE6D5C5CDA13B76EB7B66EB7DA6EB773
:10328000B6B7B7B76EB7DADADADADADADADADADABA
:10329000DADADADADADADADADADADADADADADADA8E
:1032A000DADADADADADADADADADADADADADADADA7E
:1032B000DADADADADADADA1365AE6D5C5CDA13B729
:1032C0006EB7B66EB7DADADADADADADADADADADAA0
:1032D000DADADADADADADADADADADADADADADADA4E
:1032E000DADADADADADADADADADADADADADADADA3E
:1032F000DADADADADADADADADADADADADADADA13F5
:1033000065AE6D5C5CDADA0B0B0A530B6DDADA131F
:1033100065AE6D5C5CDA13B76EB7B66EB7DA6EB7D2
:10332000B6B7B7B76EB7B7B7B6B76E6EB7135C1CA4
:10333000B76EB66EAE1413B76EAEAE6E6E141313D8
:10334000AEB6AE65135C1313AEB6AE65135CDA0BA6
:103350000B0A530B6DDADA1365AE6D5C5CDA13B7EA
:103360006EB7B66EB7DA6EB7B6B7B7B76EB7B7B7F0
:10337000B6B76E6EB7135C1CB76EB66EAE1413B7ED
:103380006EAEAE6E6E1413B76EAEAE6E6E141313D9
:10339000AEB6AE65135CDA0B0B0A530B6DDADA13BB
:1033A00065AE6D5C5CDA13B76EB7B66EB7DA6EB742
:1033B000B6B7B7B76EB7B7B7B6B76E6EB7135C1C14
:1033C000B76EB66EAE145C1CB76EB66EAE1413B7A5
:1033D0006EAEAE6E6E141313AEB6AE65135CDA0B42
:1033E0000B0A530B6DDADA1365AE6D5C5CDA13B75A
:1033F0006EB7B66EB7DA6EB7B6B7B7B76EB7B7B760
:10340000B6B76E6EB713B7B7B6B76E6EB7135C1CB0
:10341000B76EB66EAE1413B76EAEAE6E6E141313F7
:10342000AEB6AE65135CDA0B0B0A530B6DDADA132A
:1034300065AE6D5C5CDA13B76EB7B66EB7DA6EB7B1
:10344000B6B7B7B76EB76EB7B6B7B7B76EB7B7B7E9
:10345000B6B76E6EB7135C1CB76EB66EAE1413B70C
:103460006EAEAE6E6E141313AEB6AE65135CDA0BB1
:103470000B0A530B6DDADA1365AE6D5C5CDA13B7C9
:103480006EB7B66EB7DA13B76EB7B66EB7DA6EB799
:10349000B6B7B7B76EB7B7B7B6B76E6EB7135C1C33
:1034A000B76EB66EAE1413B76EAEAE6E6E14131367
:1034B000AEB6AE65135CDA0B0B0A530B6DDADA139A
:1034C00065AE6D5C5CDADA0B0B0A530B6DDADADA97
:1034D000DADADADADADADADADADADADADADADADA4C
:1034E000DADADADADADADADADADADADADADADADA3C
:1034F000DADADADADADADADADADADADADADADADA2C
:10350000DADADADADADA1313AEB6AE65135CDA0BAE
:103510000B0A530B6DDADADADADADADADADADADA6D
:10352000DADADADADADADADADADADADADADADADAFB
:10353000DADADADADADADADADADADADADADADADAEB
:10354000DADADADADADA13B76EAEAE6E6E141313B5
:10355000AEB6AE65135CDA0B0B0A530B6DDADADA32
:10356000DADADADADADADADADADADADADADADADABB
:10357000DADADADADADADADADADADADADADADADAAB
:10358000DADADADADADA5C1CB76EB66EAE1413B7D2
:103590006EAEAE6E6E141313AEB6AE65135CDA0B80
:1035A0000B0A530B6DDADADADADADADADADADADADD
:1035B000DADADADADADADADADADADADADADADADA6B
:1035C000DADADADADADAB7B7B6B76E6EB7135C1CE6
:1035D000B76EB66EAE1413B76EAEAE6E6E14131336
:1035E000AEB6AE65135CDA0B0B0A530B6DDADADAA2
:1035F000DADADADADADADADADADADADADADADADA2B
:10360000DADADADADADA6EB7B6B7B7B76EB7B7B70B
:10361000B6B76E6EB7135C1CB76EB66EAE1413B74A
:103620006EAEAE6E6E141313AEB6AE65135CDA0BEF
:103630000B0A530B6DDADADADADADADADADADADA4C
:10364000DADADADADADA13B76EB7B66EB7DA6EB795
:10365000B6B7B7B76EB7B7B7B6B76E6EB7135C1C71
:10366000B76EB66EAE1413B76EAEAE6E6E141313A5
:10367000AEB6AE65135CDA0B0B0A530B6DDADADA11
:10368000DADADADADADADA1365AE6D5C5CDA13B755
:103690006EB7B66EB7DA6EB7B6B7B7B76EB7B7B7BD
:1036A000B6B76E6EB7135C1CB76EB66EAE1413B7BA
:1036B0006EAEAE6E6E141313AEB6AE65135CDA0B5F
:1036C0000B0A530B6DDADADA1365AE6D5C5CDA1354
:1036D000B76EB7B66EB7DA6EB7B6B7B7B76EDAB75A
:1036E000B7B6B76E6EB7DA5C1CB76EB66EAEDA13ED
:1036F000B76EAEAE6E6EDA1313AEB6AE6513DADA2F
:103700000B0B0A530B6DDADADA1365AE6D5CDADA9D
:1037100013B76EB7B66EDADA6EB7B6B7B7B7DADA2E
:10372000B7B7B6B76E6EDADA5C1CB76EB66EDADAB9
:1037300013B76EAEAE6EDADA1313AEB6AE65DADA82
:10374000DA0B0B0A530BDADADADA1365AE6DDADA72
:10375000DA13B76EB7B6DADADA6EB7B6B7B7DADA5F
:10376000DAB7B7B6B76EDADADA5C1CB76EB6DADAA1
:10377000DA13B76EAEAEDADADA1313AEB6AEDADA61
:10378000DADA0B0B0A53DADADADADA1365AEDADAF6
:10379000DADA13B76EB7DADADADA6EB7B6B7DADAD8
:1037A000DADAB7B7B6B7DADADADA5C1CB76EDADAD1
:1037B000DADA13B76EAEDADADADA1313AEB6DADAC9
:1037C000DADADA0B0B0ADADADADADADA1365DADA03
:1037D000DADADA13B76EDADADADADA6EB7B6DADA52
:1037E000DADADAB7B7B6DADADADADA5C1CB7DADA02
:1037F000DADADA13B76EDADADADADA1313AEDADA39
:10380000DADADADA0B0BDADADADADADADA13DADA7D
:10381000DADADADA13B7DADADADADADA6EB7DADA81
:10382000DADADADAB7B7DADADADADADA5C1CDADA7A
:10383000DADADADA13B7DADADADADADA1313DADA60
:10384000DADADADADA0BDADADADADADADADADADAA7
:10385000DADADADADA13DADADADADADADA6EDADAFB
:10386000DADADADADAB7DADADADADADADA5CDADA59
:10387000DADADADADA13DADADADADADADA13DADA36
:10388000DADADADADADADADA1365AE6D5C5CDA1330
:10389000B76EB7B66EB7B76EB7B6B7B7B76E13B782
:1038A000B7B6B76E6EB7145C1CB76EB66EAE1413B7
:1038B000B76EAEAE6E6E5C1313AEB6AE6513DADAEB
:1038C0000B0B0A530B6D5CDADA1365AE6D5CB7DA7D
:1038D00013B76EB7B66E6EB76EB7B6B7B7B7B713E6
:1038E000B7B7B6B76E6EAE145C1CB76EB66E6E141C
:1038F00013B76EAEAE6E135C1313AEB6AE656DDA73
:10390000DA0B0B0A530B5C5CDADA1365AE6D6EB73B
:10391000DA13B76EB7B6B76EB76EB7B6B7B76EB7DE
:1039200013B7B7B6B76E6EAE145C1CB76EB66E6EDC
:103930001413B76EAEAE65135C1313AEB6AE0B6D5B
:10394000DADA0B0B0A536D5C5CDADA1365AEB66E2D
:10395000B7DA13B76EB7B7B76EB76EB7B6B76E6EE6
:10396000B713B7B7B6B7B66EAE145C1CB76EAE6E13
:103970006E1413B76EAEAE65135C1313AEB6530B75
:103980006DDADA0B0B0AAE6D5C5CDADA1365B7B68A
:103990006EB7DA13B76EB7B7B76EB76EB7B6B76EA6
:1039A0006EB713B7B7B66EB66EAE145C1CB7AEAEDC
:1039B0006E6E1413B76EB6AE65135C1313AE0A5376
:1039C0000B6DDADA0B0B65AE6D5C5CDADA136EB791
:1039D000B66EB7DA13B7B6B7B7B76EB76EB7B6B7D6
:1039E0006E6EB713B7B7B76EB66EAE145C1C6EAE24
:1039F000AE6E6E1413B7AEB6AE65135C13130B0A3E
:103A0000530B6DDADA0B1365AE6D5C5CDADAB76E08
:103A1000B7B66EB7DA13B7B6B7B7B76EB76EB7B695
:103A2000B76E6EB713B71CB76EB66EAE145CB76EDA
:103A3000AEAE6E6E141313AEB6AE65135C130B0B05
:103A40000A530B6DDADADADADADADADADADADADA69
:103A5000DADADADADADAB7DADADADADADADA13DAB0
:103A6000DADADADADADA14DADADADADADADA14DA42
:103A7000DADADADADADA5CDADADADADADADADADA24
:103A8000DADADADADADA5CDADADADADADADAB7DA37
:103A9000DADADADADADA6EB7DADADADADADAB713FF
:103AA000DADADADADADAAE14DADADADADADA6E149A
:103AB000DADADADADADA135CDADADADADADA6DDA18
:103AC000DADADADADADA5C5CDADADADADADA6EB7E1
:103AD000DADADADADADAB76EB7DADADADADA6EB787
:103AE00013DADADADADA6EAE14DADADADADA6E6E33
:103AF00014DADADADADA65135CDADADADADA0B6DE2
:103B0000DADADADADADA6D5C5CDADADADADAB66E0E
:103B1000B7DADADADADAB7B76EB7DADADADA6E6ED5
:103B2000B713DADADADAB66EAE14DADADADAAE6EF9
:103B30006E14DADADADAAE65135CDADADADA530B53
:103B40006DDADADADADAAE6D5C5CDADADADAB7B61E
:103B50006EB7DADADADAB7B7B76EB7DADADAB76EDB
:103B60006EB713DADADA6EB66EAE14DADADAAEAE51
:103B70006E6E14DADADAB6AE65135CDADADA0A53A4
:103B80000B6DDADADADA65AE6D5C5CDADADA6EB76A
:103B9000B66EB7DADADAB6B7B7B76EB7DADAB6B79B
:103BA0006E6EB713DADAB76EB66EAE14DADA6EAEE0
:103BB000AE6E6E14DADAAEB6AE65135CDADA0B0A04
:103BC000530B6DDADADA1365AE6D5C5CDADAB76E78
:103BD000B7B66EB7DADAB7B6B7B7B76EB7DAB7B6A1
:103BE000B76E6EB713DA1CB76EB66EAE14DAB76E78
:103BF000AEAE6E6E14DA13AEB6AE65135CDA0B0BB6
:103C00000A530B6DDADA01011A01010E01010201FA
:103C10000205130202060714150202141506070214
:103C20000207061514020215140706010208160100
:103C300002091702010A0B02010C0D0102181601FC
:103C4000021917020206070C0D020214150C0D02D0
:103C50000207060C0D020215140C0D01010F0101E3
:103C6000100201111202016B6C0402080A0B091602
:103C70000C0D1701011A01011B02021C1D2A2B0247
:103C8000011E1F02012C2D020220212E2F020222D2
:103C90002330310202242532330202262734350232
:103CA00002282936370102404E03024142434F5059
:103CB0005101024452010245530102545A01025774
:103CC0005D0201555602015B5C02020F0F5B5C0452
:103CD00002545556575A5B5C5D020258595E5F06A6
:103CE00002636465666768006061620000010269E2
:103CF0006D01026A6E01026B6F01026C700201714C
:103D0000720202696A6D6E02026B6C6F70020206CB
:103D100007717202021415717202020706717202B3
:103D20000215147172030373807480808081808215
:103D30000208383946473A3B48493C3D4A4B3E3FEA
:103D40004C4D020175767778797A7B7C0204838406
:103D50007D7E8B8C010185867F8E8D8F010187880A
:103D60007D7E8B8C0101898A7F8E8D8F01010202FD
:103D70009091949592939697010198999A9903033B
:103D80000607066B156C6F0770030369076A6D15EC
:103D90006E0607060406555655000F0000560F0024
:103DA000000F0F24250F0F32335C5C5B5C000406B0
:103DB00000555600560000550F1E1F0F0F0F0F0F16
:103DC0000F00000F5C00005B04060055564E5C00BF
:103DD0000055005C000000005C005C03005C005CBF
:103DE0005B000406550000560F20210F0F2E2F0FE9
:103DF0000F55560F0F00000F5B00005C020B09000F
:103E00000609141506191900000009000609141501
:103E100014190D170C019B9C9D9E9FA0A1A2A3A409
:103E2000A5A61A01A7A8A9AAABACADAEAFB0B1B216
:103E3000B3B4B5B6B7B8B9BABBBCBDBEBFC00E014E
:103E4000A8BF00B6A7BBB200B3A9B6AEABABB3BBBD
:103E5000B9AFA900A8BF00ADB8A7A7000000000037
:103E6000BBC0ABA8B5BE0000000000B6B8ABB9B986
:103E70000000B9BAA7B8BA000601AABBA9A7BAB987
:103E80000B01B9BAAFBAA9AE00AFB400030601B9CD
:103E9000B6ABABAABF0901AAB8A7ADB5B4ACB2BF67
:103EA0000501ACB2B5A7BA0401B2ABA7B60601B121
:103EB000A7A8B5B5B30601B6B5AFB9B5B407010348
:103EC00000ACB2AFABB92B3C333C2F3C133CF53CC0
:103ED000F93C193DDF3C933C0D3D8D3C653C833CFA
:103EE000FD3C0F3C133D253C193CA53C373C493C6F
:103EF0003F3C3B3C793C993C1F3C7F3C433CED3C88
:103F0000F13C7E3D893D873C1F3D013D073DCF3C57
:103F1000B93CBD3CC13CC53CB13CB53CC93C693C2D
:103F2000943DAE3DC83DE23D4F3CFC3D553C0C3C14
:103F3000063CA93CD93C9F3C613C093C783E803E14
:103F40008D3E953EA03EA73EAD3EB53EBD3EFEFE3B
:103F5000FEFEFEFEFEFEFEFEFEFEFEFEFEFEFEFE81
:103F6000FEFEFEFEFEFEFEFEFEFEFEFEFEFEFEFE71
:103F7000FEFEFEFEFEFEFEFEFEFEFEFEFEFEFEFE61
:103F8000FEFEFEFEFE00FEFEFEFEFEFE0000FEFE4B
:103F9000FEFEFEFEFEFEFEFEFEFEFEFEFEFEFEFE41
:103FA000FEFEFEFEFEFEFEFEFEFEFEFEFEFEFEFE31
:103FB000FEFEFEFEFEFEFEFEFEFEFEFEFEFE00001D
:103FC0000052525252520052525B5B5B5B52FEFEF9
:103FD000FEFEFEFEFEFEFEFEFEFEFEFEFEFEFEFE01
:103FE00000FEFEFEFEFEFEFE52000000FEFEFE0093
:103FF0005200003F00FE005200005252000000003C
:1040000052520000005252520000000CFFFEFEFE11
:10401000FEFEFE000000FEFEFEFE00000000FEFEB2
:10402000FE0052FE0000FEFEFE00FEFE0000FEFE50
:10403000FE00FEFE0000FEFEFEFEFEFE5200FEFE44
:10404000FEFEFEFE0000FEFEFEFEFEFEFE00520034
:104050000052525252005252000000000000005222
:10406000000000000000000000FEFEFE0000000056
:1040700000FEFEFEFE00FE0000FEFEFEFEFEFE0056
:1040800000FEFEFEFEFE00FE0052FEFEFEFE52524E
:104090000000FEFE52FE00520000FEFEFEFE00008A
:1040A00000FEFEFEFEFE000000FEFEFEFEFE000024
:1040B0000000FEFEFEFE0052520052FEFEFE0052C6
:1040C000FEFE0000FEFE520052FE5200FEFEFEFE0C
:1040D000FEFEFEFEFEFEFEFEFEFEFEFEFEFEFEFE00
:1040E00000FEFEFEFEFEFEFE52000000FEFEFE0092
:1040F0005200003F00FE005200005252000000003B
:104100005252000000525B520000000CFFFEFEFE07
:10411000FEFEFE000000FEFEFEFE00000000FEFEB1
:10412000FE0052FE0000FEFEFE00FEFE0000FEFE4F
:10413000FE00FEFE0000FEFEFEFEFEFE5200FEFE43
:10414000FEFEFEFEFE52FEFEFEFEFEFEFEFE5200E5
:104150000052525252005252000000000000005221
:10416000000000000000000000FEFEFE0000000055
:1041700000FEFEFEFEFE00FE0052FEFEFE000000FF
:10418000000000FEFEFEFE0000520000FEFE5B523C
:104190000000FEFE52FE00520000FEFEFEFE000089
:1041A00000FEFEFEFEFE000000000000FEFE00001D
:1041B0005B5B0000FEFE0052FEFE0000FEFEFEFE07
:1041C000FEFEFEFEFEFEFEFEFEFEFEFEFEFEFEFE0F
:1041D000FEFE00000000FEFE520052520000FEFEF5
:1041E00000FEFEFE0000FE00FEFEFEFE0000FEFEE3
:1041F000FEFEFE000000FEFEFEFEFE0000FEFEFED5
:10420000FEFEFE000000FEFEFEFEFEFE000052006E
:104210000052525252005252000000000000005260
:1042200000000000000000000000520000005200EA
:104230000052FEFEFEFE520052FEFEFEFE525200F4
:1042400052FEFEFEFEFEFE520000FEFEFEFE5B5231
:104250000000FEFE52FE005200000052FEFE000072
:1042600000000000FEFE000000000000FEFE000056
:10427000FEFE00FEFEFE0000FEFEFEFEFEFEFEFE58
:10428000FEFEFEFEFEFEFEFEFEFEFEFEFEFEFEFE4E
:10429000FEFEFEFEFEFEFEFEFEFEFEFEFEFEFEFE3E
:1042A000FEFEFEFEFEFEFEFEFEFEFEFEFEFEFEFE2E
:1042B000FEFEFEFEFEFEFEFEFEFEFEFEFEFEFEFE1E
:1042C000FEFEFEFEFE52FEFEFE5200000000FEFE5E
:1042D000FEFEFEFEFEFEFEFEFEFEFEFEFEFEFEFEFE
:1042E000FEFEFEFEFEFEFEFE00FEFEFEFEFEFEFEEC
:1042F00052000000FEFEFE005200003F00FE005291
:104300000000525200000000525200000052000013
:10431000000000000000FEFEFEFE52000052FEFE05
:10432000FEFE00000052FEFEFE5200000000FE5B9A
:104330000000000000525200520000FEFEFEFEFE91
:10434000FE0052FEFEFEFEFE5B00FEFEFEFE520082
:1043500052525B5B52525200005252520000000017
:1043600000000000000000525B5200000000FEFE52
:10437000FEFEFE000000FEFEFEFEFEFEFEFEFEFE57
:10438000FEFEFEFEFEFEFEFEFEFEFEFEFEFE5252A5
:104390000000000CFFFE52000000FEFE52FE000076
:1043A0000000FEFEFEFE000000000052FEFE0000C7
:1043B000000052000052FEFE000000FEFEFEFEFE67
:1043C000FEFE000000FEFEFEFEFEFEFEFEFEFEFE07
:1043D000FEFEFEFEFEFEFEFEFEFEFEFEFEFE00FEFB
:1043E000FEFEFEFEFEFEFE00FEFEFEFEFEFEFE5297
:1043F00052FEFEFEFEFEFEFE000000000052FEFE2B
:10440000FEFE5B000000FEFEFEFEFE000000FEFE63
:10441000FEFEFEFEFEFEFEFEFEFEFEFEFEFEFEFEBC
:10442000FEFEFEFEFEFEFEFEFEFEFEFEFEFEFEFEAC
:10443000FEFEFEFEFEFE000000FEFEFEFEFE005240
:104440005252525252005200525B5B5B5B52FEFE74
:10445000FEFEFE000052FEFEFEFE00000000FEFE1C
:10446000FE0000FE0000FEFE000000525200FEFEB4
:104470000052FEFEFEFEFEFEFEFEFEFEFEFEFEFE06
:10448000FEFEFEFEFEFEFEFEFEFEFEFEFEFE5200F6
:1044900000525252525200000000005200000052DE
:1044A00052000000000052FEFEFE00000000FEFE72
:1044B000FEFEFEFE0000FEFEFEFEFEFEFE00FEFE16
:1044C000FEFEFEFEFE00FEFEFEFEFEFEFE5252520E
:1044D0000000FEFE52FE52000052FEFEFEFE0000F4
:1044E0000052FEFEFEFE000000FEFEFEFEFE00008C
:1044F00000FEFEFEFEFE52520052FEFEFEFE52FE88
:10450000FE000000FEFE0052FEFE5200FEFEFEFE19
:10451000FEFEFEFEFEFEFEFEFEFEFEFEFEFEFEFEBB
:10452000FEFEFEFEFEFEFEFEFEFEFEFEFEFEFEFEAB
:10453000FEFEFEFEFEFEFEFE000052FE0000FE003D
:1045400052FE00000000FEFEFEFE52000052FEFE83
:10455000FEFEFEFEFEFEFEFEFEFEFEFEFEFEFEFE7B
:10456000FEFEFEFEFEFEFEFEFEFEFEFEFEFEFEFE6B
:10457000FEFEFEFEFEFE00525BFEFEFEFEFE525200
:104580005252525252000000525B5B5B5B52FEFE85
:10459000FEFE00005252FEFE9DFE00000052FE5242
:1045A000000000000000FE000000000000005200BB
:1045B00052FEFEFEFEFE0052FEFEFEFEFEFEFEFE71
:1045C000FEFEFEFEFEFEFEFEFEFEFEFEFEFE000007
:1045D00000525B5B5B5B0000000000525252000027
:1045E000000000000052FEFEFE0000000000FEFE83
:1045F000FEFEFE000000FEFEFEFEFEFE0000FEFED1
:10460000FEFEFE520052FEFEFEFEFE0052FE5B5219
:104610000000FEFE52FE520000FEFEFEFEFE000006
:1046200000FEFEFEFEFE000000FEFEFEFEFE00009E
:10463000FEFEFEFEFEFE0000FEFEFEFEFEFEFE0094
:104640000000FEFEFEFEFEFE0000FEFEFEFEFEFE82
:10465000FEFEFEFEFEFEFEFEFEFEFEFEFEFEFEFE7A
:10466000FEFEFEFEFEFEFEFEFEFEFEFEFEFEFEFE6A
:10467000FEFEFEFEFEFEFEFEFEFEFEFEFEFEFEFE5A
:10468000FEFEFEFE0000FEFE00005B520000000089
:10469000FEFEFE520000FEFEFEFEFE520000FEFE8A
:1046A000FEFEFEFE5200FEFEFEFEFEFEFE5BFEFE77
:1046B000FEFEFEFEFEFEFEFEFEFEFEFEFEFEFEFE1A
:1046C000FEFEFEFEFEFEFEFEFEFEFEFEFEFE5200B4
:1046D0000052525B5B525252000000005252005294
:1046E00052000000000000000000000000525200D4
:1046F000000000FE0000520000FE00000000FE521C
:10470000000000000000FEFE9D0000525B5B5200B6
:104710000000FEFE52FE00000000FEFEFEFE000055
:104720000052FEFEFEFE000000FEFEFEFEFEFE004B
:1047300052FEFEFEFEFE0052FEFEFEFEFEFE52FE9B
:10474000FEFEFEFEFEFEFEFEFEFEFEFEFEFEFEFE89
:10475000FEFEFEFEFEFEFEFEFEFEFEFEFEFEFEFE79
:10476000FEFEFEFEFEFEFEFEFEFEFEFEFEFEFEFE69
:10477000FEFEFEFEFEFEFEFEFEFEFEFEFEFEFEFE59
:10478000090909090909525BA4A4A4A45B09FEFE56
:10479000FEFEFEFEFEFEFEFEFEFEFEFEFEFEFEFE39
:1047A000FEFEFEFEFEFEFEFEFEFEFEFEFEFEFEFE29
:1047B000FEFEFEFEFEFEFEFEFEFEFEFEFEFEFEFE19
:1047C000FEFEFEFEFEFE09FEFEFEFEFEFEFEFE52AA
:1047D0005B5B5B5BA4A4FEFEFEFEFEFE525BFEFE88
:1047E000FEFEFE5D5E5DFEFE102830185D67FE1069
:1047F00038281808FE0310382010FEFE04FE302072
:1048000010FEFEFEFE042010FEFEFEFEFEFE09FE71
:10481000FE5E40FEFEFEA45D5DFFC040FEFE5D5EEE
:10482000675EFF5DFEFE045EFE5E5D67FEFE0703E3
:10483000FEFEFEFE67FE04FE04FEFEFEFE67FE04B4
:10484000FEFEFEFEFEFEFEFEFEFEFEFEFEFEFEFE88
:10485000FEFEFEFEFEFEFEFEFEFEFEFEFEFEFEFE78
:10486000FEFEFEFEFE52FE525BA4FEFE5252FE52C1
:104870005B5BA4FE5252FEFE525B5BA45252FEFEF4
:10488000FE525B5BA452FEFEFEFEFE525BA4FEFEE9
:10489000FEFEFEFEFEFEFEFEFEFEFEFEFEFEFEFE38
:1048A000FEFEFEFEFEFE52FEFEFEFEFEFEFE52FE80
:1048B000FEFEFEFEFEFE52FEFEFEFEFEFEFE52FE70
:1048C000FEFEFEFEFEFE52FEFE5E40FEFEFEFEFE12
:1048D000FEFE30185252FEFE102818105E5DFE10CB
:1048E0003028FEFE5D6710382010FEFEFE033020EB
:1048F00010FEFEFE04FE2010FEFEFEFEFE04FEFE86
:10490000FEFEFEFEFEFEFEFEFEFEFEFEFEFEA45DC2
:104910005DFFC040FEFE5D5E675EFF5DFEFE045E05
:10492000FE5E5D67FEFE0703FEFEFEFE67FE04FE02
:1049300004FEFEFEFE67FE04FEFEFEFEFEFEFEFE22
:10494000FEFEFEFEFEFEFEFEFEFEFEFEFEFEFEFE87
:10495000FEFEFEFEFEFEFEFEFEFEFEFEFEFEFEFE77
:10496000FEFEFEFEFEFEFEFEFEFEFEFEFEFEFEFE67
:10497000FEFEFEFEFEFEFEFEFEFEFEFEFEFEFEFE57
:10498000FEFEFEFEFEFEFEFEFEFEFEFEFEFEFEFE47
:10499000FEFEFEFEFEFEFEFEFEFEFEFE5BA4FEFE34
:1049A000FEFE525BA4A4FEFE08525BA4A467FE08B0
:1049B000525BA4A4FE0318285BA4A4FE04FE2818DE
:1049C00008FEFEFEFE041808FEFEFEFEFEFEFEFED3
:1049D000FE5D5D5E5E1DFEFE1D5E66666666FE1D1C
:1049E0005E66666666665D5D5D5E666666665D5DA4
:1049F000655D5E66665EFE2818181D5D1D5DFE28FD
:104A00003828FEFEFEFEFE282828FEFEFEFE5DFE85
:104A1000FEFEFEFEFEFE5E5D5DFE2828FEFE665E7C
:104A20001528FF8028185E5D5D28383828285D65C8
:104A30005D28282818FE281818FEFEFEFEFE2838DD
:104A400028FEFEFEFEFE282828FEFEFEFEFEFEFEDE
:104A5000FE5D5D5E5E1DFEFE1D5E66666666FE1D9B
:104A60005E66666666665D5D5D5E666666665D5D23
:104A7000655D5E66665EFE2818181D5D1D5DFE287C
:104A80003828FEFEFEFEFEFE282828FEFEFE5DFE05
:104A9000FEFEFEFEFEFE5E5D5DFE2828FEFE665EFC
:104AA0001528FF8028185E5D5D28383828285D6548
:104AB0005D28282818FE281818FEFEFEFEFE28385D
:104AC00028FEFEFEFEFEFE282828FEFEFEFEFEFE5E
:104AD000FE5D5D5E5E1DFEFE1D5E66666666FE1D1B
:104AE0005E66666666665D5D5D5E666666665D5DA3
:104AF000655D5E66665EFE2818181D5D1D5DFE28FC
:104B00003828FEFEFEFE282828FEFEFEFE285DFE5A
:104B1000FEFEFEFEFEFE5E5D5DFE2828FEFE665E7B
:104B20001528FF8028185E5D5D28383828285D65C7
:104B30005D28282818FE281818FEFEFEFEFE2838DC
:104B400028FEFEFEFEFE2828FEFEFEFEFEFEFE669F
:104B50005EFEFE38FEFE6F5D665EFE1818FE66663F
:104B60005E6628FF40186F6F665E661838286666B6
:104B70005E6F5E3818FE6F6F6F665D38FEFEFE5E1C
:104B80005E5D3828FEFE28383838383818FE0001B7
:104B9000020304050001060708090001060A0B0CC0
:104BA0000D010E0F10111213021415161718021909
:104BB0001A1B1C01021D1E1F20212223242526272B
:104BC000282829232A2B2C2D2E2F30060302010002
:104BD0000000008E4B0603020600000400944B0404
:104BE00002020300000400B84B02020103000008A7
:104BF00000C44B0101010100008000CA4B02020108
:104C00000400000801423D08020404000008014CB1
:104C10003D0101010400001001783D040202020080
:104C20000008006E3D0402020400000A00303D014D
:104C300001010400001000783D0E0E010400008008
:104C4000003E3E00020B00085500030C0104020167
:104C5000040201040201040201040201040201042D
:104C6000020104020104020104020104020104021F
:104C700001040201040201040201050000FF000713
:104C8000FF0002030000FC000828010405010404E1
:104C9000010403010402010401000990000A6002FA
:104CA00004010204010204010204010204010204DD
:104CB00001020401020401020401020401020401D0
:104CC00002040102040102050000FF0000FB0008CD
:104CD0003C02030602030602030604050000FF006F
:104CE00002020008530007FF000990000A3C02047A
:104CF000060203060000F600FF0000FB0008320277
:104D0000040602040602040604050000FF00020275
:104D10000000F702030C02040C01030C03040C0155
:104D2000030C02040C01030C03040C01030C020429
:104D30000C02030C02040C01030C03040C00FF0022
:104D400000E700010603010501010100FF0007FE65
:104D50000000E70001080101070201050101010B44
:104D6000078A0000DD0001000101010607EE0000D6
:104D7000F20001000101010D078A0000DD000100C1
:104D80000101010607FE0000E700013201010702F0
:104D900001050101010B078A0000DD00010001018E
:104DA000010607EE0000F20001000101010D078A73
:104DB0000000DD00010001010105050000FF000009
:104DC000DD00010001010107050000FF0000F10006
:104DD000010001010100FF0002020000F10400F8DF
:104DE00000FF000202000960000A1E0000F800FF38
:104DF0000002020000F6010303020304010407029B
:104E00000303010304010407010303010304020473
:104E10000701030301030401040701030302030460
:104E20000104070103030103040104070203030152
:104E3000030401040701030301030402040701053D
:104E40000000FF0002020000F60103040103030159
:104E5000040702030401030301040701030401031F
:104E6000030204070103040203030104070103040E
:104E70000103030104070203040103030104070102
:104E800003040103030204070103040103030104F3
:104E90000701050000FF0002010106000100E20019
:104EA000FF000201150402070302160404070304AD
:104EB0001604020703022407000703030007FF0F7D
:104EC00007000704030007FF0E070000FF000000B3
:104ED0000D4D000000000100003F4D0000000000EB
:104EE00000004D4D00000000010000BE4D0000001C
:104EF00000010000CC4D00000000000000D74D0074
:104F0000000000000000E24D00000000000000F082
:104F10004D00000000000000434E000000000000B3
:104F200000A14E00000000000000964E00000000AE
:104F3000000000434C000000000000007E4C000018
:104F40000000000000CB4C00000000000000DF4C1F
:104F500000000000000000F94C0000000000FF0607
:104F6000015300C00600B00754005C0100C10500F9
:104F7000B1075000C20900B2076600C30000B307C2
:104F80002601C0060090247F00C2090092307F00F5
:104F900093025E08C1050D90307F16247F0E2E7F90
:104FA000162E7F07247F0193025E0D90307F082428
:104FB0007F0E2E7F16247F07267F0E277F07247FF4
:104FC0000092307F0093025E1690307F16247F0E91
:104FD0002E7F16227F0693025E0190247F0E307F83
:104FE00007247F0F2E7F15247F08267F0E277F063C
:104FF00093027F0190247F0091487F0092307F07C9
:10500000914A7F084B7F0790307F00914D7F15902C
:10501000247F0F2E7F182E7F0493027F0190247F20
:105020000E307F07247F0F2E7F15247F07267F00F9
:1050300091417F08437F0790277F0091447F07902D
:10504000247F0091487F0092307F0093027F079178
:105050004A7F074B7F0890307F0091507F074B7F3E
:10506000074A7F0790247F00914B7F074A7F089073
:105070002E7F0091487F074A7F07487F0790227F55
:105080000091467F0790247F0091487F0093027F24
:105090000F90307F07247F0E2E7F16247F07267FF8
:1050A0000F277F0693027F0190247F0091487F00A5
:1050B00092307F07914A7F074B7F0790307F0091A6
:1050C000507F1690247F0E2E7F1A2E7F0293027F30
:1050D0000190247F0F307F07247F0E2E7F16247FC0
:1050E0000091487F0790267F00914A7F074B7F07FA
:1050F00090277F00914D7F0793027F0190247F00CE
:1051000091547F0092307F0791527F07547F079020
:10511000307F0091507F07547F084F7F0790247F96
:105120000091527F074D7F07902E7F0091527F079D
:105130004B7F08527F0790227F00914A7F0693029F
:105140007F0190247F0091487F0E90307F08247F5C
:105150000E2E7F16247F07267F07C1000790277F2A
:1051600007247F0091487F0092307F0093027F16D2
:1051700090307F16247F0091487F0E902E7F1691ED
:105180003C7F03902E7F02C1050193027F01902492
:105190007F0091487F0E90307F0091447F079024DC
:1051A0007F0091467F0F902E7F00914B7F159024BA
:1051B0007F08267F00914F7F0CC1000290277F0659
:1051C00093027F0190247F009154640092307F16F7
:1051D00090307F15247F009154640F902E7F0791AB
:1051E0003C7F0C487F01C1050190227F0091487FE0
:1051F0000693027F0290247F00914A7F074B7F072E
:1052000090307F00914A7F0790247F0091487F0F64
:10521000902E7F0791487F0E90247F00913C7F075E
:1052200090267F00913C7F0F90277F00913C7F0468
:10523000C1000293027F0190247F0091487F009279
:10524000307F1690307F15247F0091487F0F902E7D
:105250007F15913C7F04902E7F01C1050193027F51
:105260000190247F0091487F0F90307F0091447F10
:105270000790247F0091467F0E902E7F00914B7FF8
:1052800011902E7F05247F07267F00914F7F0F907E
:10529000277F02C1000590247F0091546400923062
:1052A0007F0093027F1590307F16247F0091546415
:1052B0000E902E7F08913C7F0C487F01C105019024
:1052C000227F0091487F0790247F00914A7F0093BE
:1052D000027F07914B7F0890307F00914A7F0790B3
:1052E000247F0091487F0E902E7F0791487F0F907A
:1052F000247F00913C7F0790267F00913C7F0E9099
:10530000277F00913C7F0793027F01C007009048F0
:105310007F00913C7F0092307F07913E7F073F7F67
:105320000790487F0091417F073F7F083E7F073C01
:105330007F07417F07437F07447F08437F07417F03
:105340000693027F0190467F0091487F07437F07C5
:10535000447F0890467F0091467F07437F07447F44
:10536000073C7F07377F08307F07377F07387F0785
:105370003A7F0790437F00913C7F0092307F0093FB
:10538000027F08913E7F073F7F0790437F00914156
:105390007F073F7F073E7F08487F074A7F074B7F95
:1053A0000790437F00914D7F074B7F084A7F06930C
:1053B000027F01C0080090447F0091487F07437F2F
:1053C00007447F0790447F0091487F08437F07444C
:1053D0007F07487F074B7F074A7F08487F15C00734
:1053E0000090487F00913C7F0092307F0093027FC5
:1053F00007913E7F083F7F0790487F0091417F07DC
:105400003F7F073E7F073C7F08417F07437F07447C
:105410007F07437F07417F0793027F0190467F000C
:1054200091487F07437F07447F0790467F0091465E
:105430007F07437F08447F073C7F07377F07307F24
:1054400007377F08387F073A7F0790437F00913CFA
:105450007F0092307F0093027F07913E7F073F7F5E
:105460000890437F0091417F073F7F073E7F0748B9
:105470007F074A7F084B7F0790437F00914D7F074E
:105480004B7F074A7F07C0080090447F0091487F08
:105490000093027F0891437F07447F0790447F0079
:1054A00091487F07437F07447F08487F074B7F076A
:1054B0004A7F07487F0EC00704C1000490487F0060
:1054C00091487F0093027F1590487F1691487F2472
:1054D0003C7F05487F00C1050290467F0091487FD0
:1054E0000093027F0F91447F0790467F0091467F93
:1054F0000E4B7F1D4F7F14C1000290437F009154DB
:10550000550093027F1590437F1691545515904393
:105510007F00913C7F0C487F01C1050291487F01CB
:10552000C0080690447F00914A7F0093027F079154
:105530004B7F074A7F0890447F0091487F15487F42
:105540000F3C7F073C7F0E3C7F02C00703C1000277
:1055500090487F0091487F0093027F1690487F1605
:1055600091487F243C7F06C1050093027F0190464D
:105570007F0091487F0E447F0790467F0091467FD1
:105580000F4B7F1D4F7F11C1000490437F0091544A
:10559000550093027F1690437F1591545516904302
:1055A0007F00913C7F0C487F01C1050191487F0439
:1055B000C0080393027F0190447F00914A7F074B0C
:1055C0007F074A7F0790447F0091487F16487F00FD
:1055D000922B7F0E913C7F073C7F00922E7F0F9194
:1055E0003C7F02C0070590487F0091307F009230D9
:1055F0007F0093027F1690487F00912E7F15247FB5
:1056000016307F1590467F00912E7F0093027F1603
:1056100090467F0091307F16337F15307F16904380
:105620007F0091307F0092307F0093027F1590437E
:105630007F00912E7F16247F1690437F00912B7F51
:1056400012C0080390447F00912E7F0093027F16C2
:1056500090447F0091377F15337F16307F0E2E7F69
:1056600002C0070690487F0091307F0093027F15AB
:1056700090487F00912E7F16247F15307F1690462C
:105680007F00912E7F0093027F1690467F0091301D
:105690007F15337F16307F1590437F0091307F0058
:1056A00093027F1690437F00912E7F16247F1590E2
:1056B000437F00912B7F12C0080393027F01904427
:1056C0007F00912E7F1590447F0091377F16337FA6
:1056D00016307F0E2E7F06FF06014501FF2F000CBE
:1056E00002340C06340D02340D06340E02340D045F
:1056F000340E04340E05340E06341102341106340F
:105700001202341206341708380308381E0838030A
:105710000134110B391B03360D01340304340E021E
:10572000361903361601341106340C0D341B0D34B2
:105730000A07370D02360A05341602340201360014
:1057400008341102340704380904380B04380D04F6
:10575000381104381304381504381704380C02348F
:1057600003023413033403023417023404063819D5
:1057700011390D15391112391C06390602340F0280
:10578000341603341610391A013404013415043860
:105790001902340E05391501341D0438080134147A
:1057A00001341A0A340B1639110A34051639121647
:1057B000391C0234020234050436040C38180C3843
:1057C0001901361706340E03340304340604360D6B
:1057D00006341A0236190534140D39080134040848
:1057E000340B0236100C38140C381C05361D0134ED
:1057F0000402340703361402360F04341A02340B41
:1058000003361A05340905340B0A341804341B0313
:10581000360401360302340A06341503340E013609
:105820000701360303341403340402341A08340124
:1058300007390709340C01341E03340A01341A02F3
:10584000340703361404360A0334170734050236C6
:105850000C0434170136160634130C3903043411C2
:105860000634130C341A02340C0A390302340C01C6
:10587000340F04341702341A0938050E341D0D3460
:10588000150234080334160A390B09391A0838147A
:1058900002341D05340303340201340D03341B02AA
:1058A000341508380508380A02340B02340C023467
:1058B0000A04340B04340E02341002340E06341081
:1058C0000634130334140434160634170939030953
:1058D000390202340306340E04340706380F0E343E
:1058E0001B10341C06341B0237040C2D0A0C2E101E
:1058F0000C2F130B12160C300A0032040134160060
:10590000341C04340F073419093805093803051706
:10591000030A1A030E350311181401121405081492
:10592000092006023B06063C060A3D060E3E06120C
:105930003F160240160641160A42160E431612433F
:10594000140E3A150E3A010100200A0B0103002043
:105950000B1900020B0C02070002101102070002D3
:105960001314020700021C1E000A010100090A0BA1
:105970000009090A0A0B0103000A0B190100090AB0
:10598000000201010A1A000102000A1A01100201B4
:105990000A1A101400010A1A141900011A20171902
:1059A00001021A1B000200081A1B0A0B01011B202E
:1059B0000A0B01031A200B1501041A1B1517010607
:1059C0001B2015170001001417190101000C0A0B08
:1059D0000103000C0B150106000C151701020C0D3C
:1059E0000A0C01010C140C0D01030C140D15010619
:1059F0000C13151701051314151782021420111228
:105A0000000A1420111200011420121901021415A9
:105A10000C0E0107191F0E10820200201112010A3C
:105A200000201112000100201219810804060D0F38
:105A30000202040A0F118107040A0F110308040A65
:105A40000F110107141A0C0E820416180A0C040018
:105A500016180A0C820200201112050A00201112E9
:105A60000001002012190107040A0B0D010B141686
:105A70001718810A141615170601141615170107B1
:105A8000161C0A0C8202001C1112070A001C1112BB
:105A90000001001C12190107060C090B8204080AF8
:105AA00007090800080A070901071016070901007D
:105AB0001B1C060801011C20060701031C200713FC
:105AC00000011C20131981031C201319090C1C2030
:105AD0001319000100201319010300200711010907
